S01300004144435F546573744170702E7372656329
S11300000C942A000C9447000C9447000C9447006D
S11300100C9447000C9447000C9447000C94470040
S11300200C9447000C9447000C9404030C94470070
S11300300C9447000C9447000C9447000C94470020
S11300400C946B010C9447000C9447000C944700EB
S11300500C94470011241FBECFE5D8E0DEBFCDBF0E
S113006010E0A0E6B0E0E0EAF6E002C005900D92F0
S1130070AC36B107D9F720E0ACE6B0E001C01D9280
S1130080A537B207E1F70E9449000C944E030C9483
S11300900000CF93DF9300D0CDB7DEB740E060E03F
S11300A080E00E9494018091690090916A000E940E
S11300B0ED0080916700909168000E94ED008091AE
S11300C06500909166000E94ED008091630090911C
S11300D064000E94ED000E9405011A82198280E6E4
S11300E090E00E941601CE0101960E94450189818B
S11300F09A818F3F910509F0C8F48091690090912D
S11301006A000E94F50080916700909168000E9447
S1130110FD0080916500909166000E94FD00809131
S11301206300909164000E94FD00D9CF811522E004
S11301309207C8F48091690090916A000E94F500CA
S113014080916700909168000E94F500809165009D
S1130150909166000E94FD0080916300909164007C
S11301600E94FD00BCCF811523E09207C8F4809162
S1130170690090916A000E94F50080916700909157
S113018068000E94F50080916500909166000E94CD
S1130190F50080916300909164000E94FD009FCF60
S11301A08115944008F09BCF8091690090916A007A
S11301B00E94F50080916700909168000E94F5000C
S11301C080916500909166000E94F5008091630023
S11301D0909164000E94F50082CF41E0692F0E9453
S11301E09401843109F481E3089541E0692F0E9468
S11301F08A02843109F482E3089540E0692F0E9461
S11302008A02843109F483E3089587B18F7387B92F
S113021087B1806487B987B18F7D87B987B1887FBB
S113022087B987B1866087B980E00895FC01892B7E
S113023041F187B1807E87B997B18181892B87B9D4
S113024086B1806886B98281883029F486B1806459
S113025086B980E0089586B1806286B980B78F71CF
S113026080BF20B7928130E2939FC0011124822B7A
S113027080BF8281811107C086B1806486B980E025
S1130280089582E5089580E00895009711F1349B64
S1130290FECF3D9B10C044B14295469546954370B0
S11302A025B130E0220F331F220F331F242BFC0112
S11302B03183208309C044B125B130E0322F222795
S11302C0242BFC013183208386B18F7E86B980E0A4
S11302D0089583E508951F920F920FB60F9211248B
S11302E02F933F934F935F936F937F938F939F933A
S11302F0AF93BF93EF93FF93E0916C00F0916D0087
S1130300309709F00995FF91EF91BF91AF919F91BB
S11303108F917F916F915F914F913F912F910F90AA
S11303200FBE0F901F901895683008F0E7C0813019
S113033009F43FC038F0823009F472C0833009F404
S1130340A6C0DEC0413049F118F0423091F0DAC065
S11303502AB381E090E002C0880F991F6A95E2F702
S11303608095922F98239ABB9BB389238BBB80E003
S1130370089580B78B7F80BF2AB381E090E002C0EC
S1130380880F991F6A95E2F7982F909592239ABB4C
S11303909BB3892B8BBB80E008952AB381E090E066
S11303A002C0880F991F6A95E2F7822B8ABB80E00E
S11303B00895413049F118F0423091F0A5C027B3B7
S11303C081E090E002C0880F991F6A95E2F780955A
S11303D0922F982397BB98B3892388BB80E0089514
S11303E080B78B7F80BF27B381E090E002C0880F85
S11303F0991F6A95E2F7982F9095922397BB98B32B
S1130400892B88BB80E0089527B381E090E002C087
S1130410880F991F6A95E2F7822B87BB80E00895C5
S1130420413049F118F0423091F070C024B381E0BA
S113043090E002C0880F991F6A95E2F78095922F89
S1130440982394BB95B3892385BB80E0089580B736
S11304508B7F80BF24B381E090E002C0880F991F96
S11304606A95E2F7982F9095922394BB95B3892BC4
S113047085BB80E0089524B381E090E002C0880F3A
S1130480991F6A95E2F7822B84BB80E0089541307E
S113049049F118F0423091F03BC021B381E090E083
S11304A002C0880F991F6A95E2F78095922F9823CE
S11304B091BB9BB389238BBB80E0089580B78B7F6E
S11304C080BF21B381E090E002C0880F991F6A9534
S11304D0E2F7982F9095922391BB92B3892B82BB1C
S11304E080E0089521B381E090E002C0880F991F55
S11304F06A95E2F7822B81BB80E0089582E108953A
S113050082E1089582E1089582E1089582E10895E7
S113051082E10895683008F06BC0813001F130F059
S11305208230B1F1833009F44BC064C0423008F02A
S113053063C05BB321E030E0062E02C0220F331FFC
S11305400A94E2F7842F90E002C0880F991F6A95FD
S1130550E2F720952523822B8BBB80E0089542305F
S113056008F04CC058B321E030E0062E02C0220F40
S1130570331F0A94E2F7842F90E002C0880F991F7A
S11305806A95E2F720952523822B88BB80E00895A5
S11305904230B0F555B321E030E0062E02C0220F00
S11305A0331F0A94E2F7842F90E002C0880F991F4A
S11305B06A95E2F720952523822B85BB80E0089578
S11305C0423000F552B321E030E0062E02C0220F83
S11305D0331F0A94E2F7842F90E002C0880F991F1A
S11305E06A95E2F720952523822B82BB80E008954B
S11305F084E1089584E1089584E1089584E10895EF
S113060084E1089584E108951F920F920FB60F922A
S113061011242F933F934F935F936F937F938F9303
S11306209F93AF93BF93EF93FF9380917100909149
S11306307200019690937200809371002091710072
S113064030917200809173009091740028173907DB
S1130650A1F480916E0090916F00892B71F010923B
S113066072001092710089B78D7F89BF109270005B
S1130670E0916E00F0916F000995FF91EF91BF91A9
S1130680AF919F918F917F916F915F914F913F9126
S11306902F910F900FBE0F901F901895F894FFCFD5
S10F06A000000801070106010501040028
S9030000FC
